:020000020000FC
:2000000006C00074DEC00004DEF6303ADEC001D4DEF6303A06800074D6836C0406000074D8
:20000800C6237F040080007410A1BE041000683A20BFFFCC2012D43A32BFFFCC3018D43A57
:200010001297383A4A95383A1311383A5804D43A4B13383A4291883A1205883A1280022E64
:2000180000C0007448D3883A1010D43A21C9383A314D383A1004943A4253883A5AFFFFCCE0
:200020002249883A12C5883A2187883AF800283A20001A16000F883A2800020E014BC83A8F
:2000280039C0005C200D883A00C000442900092E0080080400C00044000001061000122631
:20003000294B883A10BFFFC418C7883A293FFB3618000D260005883A31400236314DC83A73
:2000380010C4B03A1806D07A280AD07A183FFA1E380001260085C83AF800283A0109C83A4B
:2000400001C00044003FE4060005883A003FF80620001A16000F883A2005883A2800010E2F
:20004800014BC83A00C000442900092E0180080400C000440000010630000D26294B883AB5
:2000500031BFFFC418C7883A293FFB36180008261806D07A114001361145C83A280AD07A99
:20005800183FFB1E380001260085C83AF800283A2005883A383FFD26003FFB060109C83A0B
:2000600001C00044003FE406200D883A2900152E280014160080080400C00044000002060D
:2000680010000E2628000516294B883A10BFFFC418C7883A293FFA36180008260005883AE3
:2000700031400236314DC83A10C4B03A1806D07A280AD07A183FFA1EF800283A0005883A15
:20007800F800283A00C00044003FF4062005883A2900132E280012160180080400C000449F
:200080000000020630000C2628000516294B883A31BFFFC418C7883A293FFA36180006264D
:200088001806D07A114001361145C83A280AD07A183FFB1EF800283A2005883AF800283A89
:2000900000C00044003FF6062008943A2188B03A280A963A2148B03A01100035F800283A93
:20009800DEFFF60400801004D880001500801E44D880011500800904D880021500800C0494
:2000A000D880031500800644D880041500800484D880051500800084D880061500801E0402
:2000A800D8800715D800081500800404D8800915208002A81000061E200890BAD8800A047B
:2000B0001109883A20BFF617DEC00A04F800283A00800FC4003FFC06D0A00E1711000135F2
:2000B800114002351180033510000035D0A00E1710800037F800283A0180080E2805883A56
:2000C000300C90BA298B883A10C0003720C000351080010421000104117FFB1EF800283A4A
:2000C800DEFFFF04DFC0001500082F80DFC00017DEC00104F800283AD0A00D1711400235FE
:2000D000118003351100053510000035D0A00D1710800037F800283ADEFFFB04DFC004156E
:2000D800DCC00315DC800215DC400115DC00001520001B262821883A3023883A202690BAAD
:2000E0002CE7883A0025883A8140003789C00037380D883A380FD7FA2809883A280BD7FAB6
:2000E800000803001806943A1004D43A1884B03A90A5883A840001048C40010484FFF21E75
:2000F0009005883ADFC00417DCC00317DC800217DC400117DC000017DEC00504F800283A8C
:2000F8000025883A003FF606DEFFF604DFC00915DF000815DDC00715DD800615DD400515CE
:20010000DD000415DCC00315DC800215DC400115DC000015DD800A17DDC00B1728001726FD
:20010800202B883A3023883A203890BA3825883ADCC00C17280A90BA3169883A0000050652
:20011000988000358C4001049725883A9CC001048D000A268C000037B80D883A900B883A6E
:20011800A809883A000835808085883AB03FF426103FF30E0005883A003FF106DFC00917BB
:20012000DF000817DDC00717DD800617DD400517DD000417DCC00317DC800217DC400117FC
:20012800DC000017DEC00A04F800283AD0A00C17D8C0011710C0033511000535D8C0001779
:2001300010C0073528000E263007883A200890BADA000217280A90BA314D883AD0A00C179A
:2001380010C0013511C00235120004351000003518C00104390F883A4200010419BFF71EEE
:20014000D0A00C1710800037F800283A2080009010000F1E29C00104018000440005883A04
:20014800000003063180004439C00104218007263A000037100690BA28C7883A18C000373C
:200150001A3FF80E3005883A003FF606F800283A0005883AF800283ADEFFF604DFC00915EF
:20015800DF000815DDC00715DD800615DD400515DD000415DCC00315DC800215DC400115D4
:20016000DC000015202D883A382B883ADD000A17A1E9C83AA5000044A0000716A029D23A55
:20016800282F883A280019263027883A303890BA0025883A00000406A5003FC4003FF70657
:200170009480004495C01126983FFD26B005883A0021883A1440010411000037A00B883A29
:200178002549C83A0008188011803FCC900B883A8009883A00082480840000448805883A50
:200180009C3FF41EB72D883A003FED06DFC00917DF000817DDC00717DD800617DD4005176F
:20018800DD000417DCC00317DC800217DC400117DC000017DEC00A04F800283ADEFFFE0428
:20019000DFC00115D0A00F1700C00FC410C0003500BFFFD4D8800015000F883A0180070410
:2001980001400704D1200617000855800100028400082600D0E00F1718800035D0A012171F
:2001A00010C00037D0A0081710C00035003FFB063005883A300008262989883A00C401379F
:2001A80018FFFFEC183FFD262940004428FFFFC700C40035293FF91EF800283A00C4003754
:2001B00018A0000C103FFD261805D43A108000443080012E3005883A0080050E2889883A1E
:2001B8002940004428FFFFC500C40037217FFC1EF800283AF800283A0180007401000074BC
:2001C00021237E0431A37F04DEFFFF04310DC83A000B883ADFC000150008738000086F40AF
:2001C8000009883A000D883A000B883A000863C01009883A000873C000087701DEFFFE0410
:2001D000000B883ADC000015DFC001152021883A000886000080007411237C1720800F178A
:2001D80010000126103EE83A8009883A000897C020C000CC2005883A1800362631FFFFC4BC
:2001E000300033262811883A2007883A0000030639FFFFC439BFFFE030002D1E18C0004420
:2001E8001A3FFFC5198000CC303FF91E390001302000221E29003FCC200C923A3A0004308B
:2001F0003108B03A200C943A310CB03A40000E1E3A3FFC044010D13A420000444010913ACA
:2001F8001A11883A19800015198001151980021518C0040419BFFF1540FFFA1E3900030C82
:2002000039C003CC20000D261809883A210001043911C83A1A11883A21BFFF154200012822
:20020800403FFA1E393FFF042008D0BA39C000CC21000044200890BA1907883A3800042632
:2002100019CF883A18C00044197FFFC538FFFD1EF800283A2007883A300F883A003FD306FE
:20021800DEFFF70400800074DDC0071515E37C17DD400515DD000415DCC00315DFC0081519
:20022000DD800615DC800215DC400115DC0000152029883A282B883A04C00044BC805217E3
:2002280090000D2694000117847FFFC488000A1684000044802090BA9421883AA8001126D1
:200230008080401715400F268C7FFFC488BFFFD8843FFF04103FF91EDFC00817DDC007173C
:20023800DD800617DD400517DD000417DCC00317DC800217DC400117DC000017DEC00904FE
:20024000F800283A908001178180001710BFFFC41440152680000015303FEB269C46983A1A
:2002480090806217958001171884703A1000061E303EE83A9080011715BFD81EB880521743
:2002500014BFE126003FD50690806317810020171886703A1800061E200B883AA009883A7C
:20025800303EE83A003FF30694400115003FEA06303EE83A003FEF06F800283ADEFFFE04A8
:20026000DC000015DFC001152021883A000897808005883A003FFF060000000000008C841B
:2002680000008CEC00008D540000000000000000000000000000000000000000000000001D
:2002700000000000000000000000000000000000000000000000000000000000000000006E
:20027800000000000000000000000000000000000000000000000000000000000000000066
:2002800000000000000000000000000000000000000000000000000000000000000000005E
:20028800000000000000000000000000000000000000000000000000000000000000000155
:2002900000000000ABCD330EE66D12340005DEEC0000000B00000000000000000000000022
:20029800000000000000000000000000000000000000000000000000000000000000000046
:2002A00000000000000000000000000000000000000000000000000000000000000000003E
:2002A800000000000000000000000000000000000000000000000000000000000000000036
:2002B00000000000000000000000000000000000000000000000000000000000000000002E
:2002B800000000000000000000000000000000000000000000000000000000000000000026
:2002C00000000000000000000000000000000000000000000000000000000000000000001E
:2002C800000000000000000000000000000000000000000000000000000000000000000016
:2002D00000000000000000000000000000000000000000000000000000000000000000000E
:2002D800000000000000000000000000000000000000000000000000000000000000000006
:2002E0000000000000000000000000000000000000000000000000000000000000000000FE
:2002E8000000000000000000000000000000000000000000000000000000000000000000F6
:2002F0000000000000000000000000000000000000000000000000000000000000000000EE
:2002F8000000000000000000000000000000000000000000000000000000000000000000E6
:200300000000000000000000000000000000000000000000000000000000000000000000DD
:200308000000000000000000000000000000000000000000000000000000000000000000D5
:200310000000000000000000000000000000000000000000000000000000000000000000CD
:200318000000000000000000000000000000000000000000000000000000000000000000C5
:200320000000000000000000000000000000000000000000000000000000000000000000BD
:200328000000000000000000000000000000000000000000000000000000000000000000B5
:200330000000000000000000000000000000000000000000000000000000000000000000AD
:200338000000000000000000000000000000000000000000000000000000000000000000A5
:2003400000000000000000000000000000000000000000000000000000000000000000009D
:20034800000000000000000000000000000000000000000000000000000000000000000095
:2003500000000000000000000000000000000000000000000000000000000000000000008D
:20035800000000000000000000000000000000000000000000000000000000000000000085
:2003600000000000000000000000000000000000000000000000000000000000000000007D
:200368000000000000000000000000000000000000000000000000000000000008803000BD
:2003700008802000088010000880000008000000000000100000700000006000000040007D
:20037800000012000000110000001040000010100000899800008998000000000000000090
:2003800000000000000000000000000000000000000000000000000000000000000000005D
:20038800000000000000000000000000000000000000000000000000000000000000000055
:2003900000000000000000000000000000000000000000000000000000000000000000004D
:20039800000000000000000000000000000000000000000000000000000000000000000045
:00000001FF
